{
	"_format": "hh-sol-artifact-1",
	"contractName": "SocialMedia",
	"sourceName": "contracts/SocialMedia.sol",
	"abi": [
		{
			"inputs": [],
			"name": "commentCount",
			"outputs": [
				{
					"internalType": "uint256",
					"name": "",
					"type": "uint256"
				}
			],
			"stateMutability": "view",
			"type": "function"
		},
		{
			"inputs": [
				{
					"internalType": "uint256",
					"name": "",
					"type": "uint256"
				}
			],
			"name": "comments",
			"outputs": [
				{
					"internalType": "uint256",
					"name": "commentId",
					"type": "uint256"
				},
				{
					"internalType": "address",
					"name": "author",
					"type": "address"
				},
				{
					"internalType": "string",
					"name": "content",
					"type": "string"
				},
				{
					"internalType": "uint256",
					"name": "createdAt",
					"type": "uint256"
				},
				{
					"internalType": "uint256",
					"name": "likeCount",
					"type": "uint256"
				}
			],
			"stateMutability": "view",
			"type": "function"
		},
		{
			"inputs": [
				{
					"internalType": "uint256",
					"name": "_postId",
					"type": "uint256"
				},
				{
					"internalType": "string",
					"name": "_content",
					"type": "string"
				}
			],
			"name": "createComment",
			"outputs": [],
			"stateMutability": "nonpayable",
			"type": "function"
		},
		{
			"inputs": [
				{
					"internalType": "string",
					"name": "_content",
					"type": "string"
				}
			],
			"name": "createPost",
			"outputs": [],
			"stateMutability": "nonpayable",
			"type": "function"
		},
		{
			"inputs": [
				{
					"internalType": "uint256",
					"name": "_commentId",
					"type": "uint256"
				}
			],
			"name": "hasLikedComment",
			"outputs": [
				{
					"internalType": "bool",
					"name": "",
					"type": "bool"
				}
			],
			"stateMutability": "view",
			"type": "function"
		},
		{
			"inputs": [
				{
					"internalType": "uint256",
					"name": "_postId",
					"type": "uint256"
				}
			],
			"name": "hasLikedPost",
			"outputs": [
				{
					"internalType": "bool",
					"name": "",
					"type": "bool"
				}
			],
			"stateMutability": "view",
			"type": "function"
		},
		{
			"inputs": [
				{
					"internalType": "address",
					"name": "_user",
					"type": "address"
				}
			],
			"name": "isFollowing",
			"outputs": [
				{
					"internalType": "bool",
					"name": "",
					"type": "bool"
				}
			],
			"stateMutability": "view",
			"type": "function"
		},
		{
			"inputs": [
				{
					"internalType": "uint256",
					"name": "_postId",
					"type": "uint256"
				}
			],
			"name": "postComments",
			"outputs": [
				{
					"internalType": "uint256[]",
					"name": "",
					"type": "uint256[]"
				}
			],
			"stateMutability": "view",
			"type": "function"
		},
		{
			"inputs": [],
			"name": "postCount",
			"outputs": [
				{
					"internalType": "uint256",
					"name": "",
					"type": "uint256"
				}
			],
			"stateMutability": "view",
			"type": "function"
		},
		{
			"inputs": [
				{
					"internalType": "uint256",
					"name": "",
					"type": "uint256"
				}
			],
			"name": "posts",
			"outputs": [
				{
					"internalType": "uint256",
					"name": "postId",
					"type": "uint256"
				},
				{
					"internalType": "address",
					"name": "author",
					"type": "address"
				},
				{
					"internalType": "string",
					"name": "content",
					"type": "string"
				},
				{
					"internalType": "uint256",
					"name": "createdAt",
					"type": "uint256"
				},
				{
					"internalType": "uint256",
					"name": "likeCount",
					"type": "uint256"
				}
			],
			"stateMutability": "view",
			"type": "function"
		},
		{
			"inputs": [
				{
					"internalType": "address",
					"name": "_user",
					"type": "address"
				}
			],
			"name": "postsByUser",
			"outputs": [
				{
					"internalType": "uint256[]",
					"name": "",
					"type": "uint256[]"
				}
			],
			"stateMutability": "view",
			"type": "function"
		},
		{
			"inputs": [
				{
					"internalType": "uint256",
					"name": "_commentId",
					"type": "uint256"
				}
			],
			"name": "toggleCommentLike",
			"outputs": [],
			"stateMutability": "nonpayable",
			"type": "function"
		},
		{
			"inputs": [
				{
					"internalType": "uint256",
					"name": "_postId",
					"type": "uint256"
				}
			],
			"name": "togglePostLike",
			"outputs": [],
			"stateMutability": "nonpayable",
			"type": "function"
		},
		{
			"inputs": [
				{
					"internalType": "address",
					"name": "_user",
					"type": "address"
				}
			],
			"name": "toggleUserFollow",
			"outputs": [],
			"stateMutability": "nonpayable",
			"type": "function"
		},
		{
			"inputs": [
				{
					"internalType": "address",
					"name": "",
					"type": "address"
				}
			],
			"name": "users",
			"outputs": [
				{
					"internalType": "address",
					"name": "wallet",
					"type": "address"
				},
				{
					"internalType": "string",
					"name": "name",
					"type": "string"
				},
				{
					"internalType": "uint256",
					"name": "followingCount",
					"type": "uint256"
				},
				{
					"internalType": "uint256",
					"name": "followerCount",
					"type": "uint256"
				},
				{
					"internalType": "uint256",
					"name": "postCount",
					"type": "uint256"
				}
			],
			"stateMutability": "view",
			"type": "function"
		}
	],
	"bytecode": "0x608060405234801561001057600080fd5b50610e89806100206000396000f3fe608060405234801561001057600080fd5b50600436106100f55760003560e01c80635921cdd911610097578063a87430ba11610066578063a87430ba14610240578063b78949e714610264578063c7303c6114610277578063fa3be4501461028a57600080fd5b80635921cdd9146101d65780637433d367146102075780638ebb4c151461021a57806396f250731461022d57600080fd5b806317906c2e116100d357806317906c2e1461018e578063339fe856146101a557806340a17985146101b857806345ff20de146101cd57600080fd5b806309d4d796146100fa5780630b1e7f831461014a57806311341d511461016e575b600080fd5b610135610108366004610a44565b336000908152602081815260408083206001600160a01b0394909416835260069093019052205460ff1690565b60405190151581526020015b60405180910390f35b61015d610158366004610a74565b6102bb565b604051610141959493929190610ad3565b61018161017c366004610a74565b61037d565b6040516101419190610b11565b61019760035481565b604051908152602001610141565b6101816101b3366004610a44565b6103e2565b6101cb6101c6366004610b9e565b61044d565b005b61019760045481565b6101356101e4366004610a74565b600090815260016020908152604080832033845260050190915290205460ff1690565b6101cb610215366004610a74565b610588565b61015d610228366004610a74565b61067e565b6101cb61023b366004610a74565b6106b1565b61025361024e366004610a44565b61078d565b604051610141959493929190610bea565b6101cb610272366004610a44565b61084e565b6101cb610285366004610c2b565b610949565b610135610298366004610a74565b600090815260026020908152604080832033845260050190915290205460ff1690565b60016020819052600091825260409091208054918101546002820180546001600160a01b0390921692916102ee90610c6d565b80601f016020809104026020016040519081016040528092919081815260200182805461031a90610c6d565b80156103675780601f1061033c57610100808354040283529160200191610367565b820191906000526020600020905b81548152906001019060200180831161034a57829003601f168201915b5050505050908060030154908060040154905085565b6000818152600160209081526040918290206006018054835181840281018401909452808452606093928301828280156103d657602002820191906000526020600020905b8154815260200190600101908083116103c2575b50505050509050919050565b6001600160a01b038116600090815260208181526040918290206002018054835181840281018401909452808452606093928301828280156103d657602002820191906000526020600020908154815260200190600101908083116103c25750505050509050919050565b60008381526001602052604090206003015483906104a35760405162461bcd60e51b815260206004820152600e60248201526d141bdcdd081b9bdd08199bdd5b9960921b60448201526064015b60405180910390fd5b8282600082828080601f01602080910402602001604051908101604052809392919081815260200183838082843760009201919091525050825192935050506104fe5760405162461bcd60e51b815260040161049a90610ca7565b60045460008181526002602081905260409091209182556001820180546001600160a01b031916331790558101610536878983610d4c565b50426003820155600088815260016020818152604083206004805460068301805495860181558652928520909301919091558154909290919061057883610e23565b9190505550505050505050505050565b6000818152600260205260409020600301546105da5760405162461bcd60e51b815260206004820152601160248201527010dbdb5b595b9d081b9bdd08199bdd5b99607a1b604482015260640161049a565b600081815260026020908152604080832033845260050190915290205460ff1615610641576000818152600260208181526040808420338552600581018352908420805460ff1916905584845291905260040180549161063983610e3c565b919050555050565b6000818152600260208181526040808420338552600581018352908420805460ff1916600117905584845291905260040180549161063983610e23565b600260208190526000918252604090912080546001820154928201805491936001600160a01b031692916102ee90610c6d565b60008181526001602052604090206003015481906107025760405162461bcd60e51b815260206004820152600e60248201526d141bdcdd081b9bdd08199bdd5b9960921b604482015260640161049a565b6000828152600160209081526040808320338452600581019092529091205460ff161561075c573360009081526005820160205260408120805460ff191690556004820180549161075283610e3c565b9190505550505050565b3360009081526005820160205260408120805460ff191660011790556004820180549161075283610e23565b505050565b600060208190529081526040902080546001820180546001600160a01b0390921692916107b990610c6d565b80601f01602080910402602001604051908101604052809291908181526020018280546107e590610c6d565b80156108325780601f1061080757610100808354040283529160200191610832565b820191906000526020600020905b81548152906001019060200180831161081557829003601f168201915b5050505050908060030154908060040154908060050154905085565b336000908152602081815260408083206001600160a01b03851684528184206006820190935292205460ff16156108e1576001600160a01b03831660009081526006830160209081526040808320805460ff1990811690915533845260078501909252822080549091169055600383018054916108ca83610e3c565b909155505060048101805490600061075283610e3c565b6001600160a01b038316600090815260068301602090815260408083208054600160ff1991821681179092553385526007860190935290832080549092161790556003830180549161093283610e23565b909155505060048101805490600061075283610e23565b8181600082828080601f01602080910402602001604051908101604052809392919081815260200183838082843760009201919091525050825192935050506109a45760405162461bcd60e51b815260040161049a90610ca7565b6003546000818152600160208190526040909120918255810180546001600160a01b03191633179055600281016109dc868883610d4c565b50426003808301919091553360008181526020818152604082209354600285018054600181018255908452918320909101559081526005909101805491610a2283610e23565b909155505060038054906000610a3783610e23565b9190505550505050505050565b600060208284031215610a5657600080fd5b81356001600160a01b0381168114610a6d57600080fd5b9392505050565b600060208284031215610a8657600080fd5b5035919050565b6000815180845260005b81811015610ab357602081850181015186830182015201610a97565b506000602082860101526020601f19601f83011685010191505092915050565b8581526001600160a01b038516602082015260a060408201819052600090610afd90830186610a8d565b606083019490945250608001529392505050565b6020808252825182820181905260009190848201906040850190845b81811015610b4957835183529284019291840191600101610b2d565b50909695505050505050565b60008083601f840112610b6757600080fd5b50813567ffffffffffffffff811115610b7f57600080fd5b602083019150836020828501011115610b9757600080fd5b9250929050565b600080600060408486031215610bb357600080fd5b83359250602084013567ffffffffffffffff811115610bd157600080fd5b610bdd86828701610b55565b9497909650939450505050565b6001600160a01b038616815260a060208201819052600090610c0e90830187610a8d565b604083019590955250606081019290925260809091015292915050565b60008060208385031215610c3e57600080fd5b823567ffffffffffffffff811115610c5557600080fd5b610c6185828601610b55565b90969095509350505050565b600181811c90821680610c8157607f821691505b602082108103610ca157634e487b7160e01b600052602260045260246000fd5b50919050565b60208082526021908201527f436f6e74656e742063616e6e6f7420626520616e20656d70747920737472696e6040820152606760f81b606082015260800190565b634e487b7160e01b600052604160045260246000fd5b601f82111561078857600081815260208120601f850160051c81016020861015610d255750805b601f850160051c820191505b81811015610d4457828155600101610d31565b505050505050565b67ffffffffffffffff831115610d6457610d64610ce8565b610d7883610d728354610c6d565b83610cfe565b6000601f841160018114610dac5760008515610d945750838201355b600019600387901b1c1916600186901b178355610e06565b600083815260209020601f19861690835b82811015610ddd5786850135825560209485019460019092019101610dbd565b5086821015610dfa5760001960f88860031b161c19848701351681555b505060018560011b0183555b5050505050565b634e487b7160e01b600052601160045260246000fd5b600060018201610e3557610e35610e0d565b5060010190565b600081610e4b57610e4b610e0d565b50600019019056fea2646970667358221220f2f19658b674b27ae11954b6399d3f5a7d4a72599f9e1fa378b0e1d753c69bfb64736f6c63430008130033",
	"linkReferences": {},
	"deployedLinkReferences": {}
}