{
	"_format": "hh-sol-artifact-1",
	"contractName": "SocialMedia",
	"sourceName": "contracts/SocialMedia.sol",
	"abi": [
		{
			"inputs": [],
			"name": "commentCount",
			"outputs": [
				{
					"internalType": "uint256",
					"name": "",
					"type": "uint256"
				}
			],
			"stateMutability": "view",
			"type": "function"
		},
		{
			"inputs": [
				{
					"internalType": "uint256",
					"name": "",
					"type": "uint256"
				}
			],
			"name": "comments",
			"outputs": [
				{
					"internalType": "uint256",
					"name": "commentId",
					"type": "uint256"
				},
				{
					"internalType": "address",
					"name": "author",
					"type": "address"
				},
				{
					"internalType": "string",
					"name": "content",
					"type": "string"
				},
				{
					"internalType": "uint256",
					"name": "createdAt",
					"type": "uint256"
				},
				{
					"internalType": "uint256",
					"name": "likeCount",
					"type": "uint256"
				}
			],
			"stateMutability": "view",
			"type": "function"
		},
		{
			"inputs": [
				{
					"internalType": "uint256",
					"name": "_postId",
					"type": "uint256"
				},
				{
					"internalType": "string",
					"name": "_content",
					"type": "string"
				}
			],
			"name": "createComment",
			"outputs": [],
			"stateMutability": "nonpayable",
			"type": "function"
		},
		{
			"inputs": [
				{
					"internalType": "string",
					"name": "_content",
					"type": "string"
				},
				{
					"internalType": "string",
					"name": "_imageCid",
					"type": "string"
				}
			],
			"name": "createPost",
			"outputs": [],
			"stateMutability": "nonpayable",
			"type": "function"
		},
		{
			"inputs": [
				{
					"internalType": "uint256",
					"name": "_commentId",
					"type": "uint256"
				}
			],
			"name": "hasLikedComment",
			"outputs": [
				{
					"internalType": "bool",
					"name": "",
					"type": "bool"
				}
			],
			"stateMutability": "view",
			"type": "function"
		},
		{
			"inputs": [
				{
					"internalType": "uint256",
					"name": "_postId",
					"type": "uint256"
				}
			],
			"name": "hasLikedPost",
			"outputs": [
				{
					"internalType": "bool",
					"name": "",
					"type": "bool"
				}
			],
			"stateMutability": "view",
			"type": "function"
		},
		{
			"inputs": [
				{
					"internalType": "address",
					"name": "_user",
					"type": "address"
				}
			],
			"name": "isFollowing",
			"outputs": [
				{
					"internalType": "bool",
					"name": "",
					"type": "bool"
				}
			],
			"stateMutability": "view",
			"type": "function"
		},
		{
			"inputs": [
				{
					"internalType": "address",
					"name": "_user",
					"type": "address"
				}
			],
			"name": "isTippedBy",
			"outputs": [
				{
					"internalType": "bool",
					"name": "",
					"type": "bool"
				}
			],
			"stateMutability": "view",
			"type": "function"
		},
		{
			"inputs": [
				{
					"internalType": "uint256",
					"name": "_postId",
					"type": "uint256"
				}
			],
			"name": "postComments",
			"outputs": [
				{
					"internalType": "uint256[]",
					"name": "",
					"type": "uint256[]"
				}
			],
			"stateMutability": "view",
			"type": "function"
		},
		{
			"inputs": [],
			"name": "postCount",
			"outputs": [
				{
					"internalType": "uint256",
					"name": "",
					"type": "uint256"
				}
			],
			"stateMutability": "view",
			"type": "function"
		},
		{
			"inputs": [
				{
					"internalType": "uint256",
					"name": "",
					"type": "uint256"
				}
			],
			"name": "posts",
			"outputs": [
				{
					"internalType": "uint256",
					"name": "postId",
					"type": "uint256"
				},
				{
					"internalType": "address",
					"name": "author",
					"type": "address"
				},
				{
					"internalType": "string",
					"name": "content",
					"type": "string"
				},
				{
					"internalType": "string",
					"name": "imageCid",
					"type": "string"
				},
				{
					"internalType": "uint256",
					"name": "createdAt",
					"type": "uint256"
				},
				{
					"internalType": "uint256",
					"name": "likeCount",
					"type": "uint256"
				}
			],
			"stateMutability": "view",
			"type": "function"
		},
		{
			"inputs": [
				{
					"internalType": "address",
					"name": "_user",
					"type": "address"
				}
			],
			"name": "postsByUser",
			"outputs": [
				{
					"internalType": "uint256[]",
					"name": "",
					"type": "uint256[]"
				}
			],
			"stateMutability": "view",
			"type": "function"
		},
		{
			"inputs": [
				{
					"internalType": "address",
					"name": "_user",
					"type": "address"
				}
			],
			"name": "tipUser",
			"outputs": [],
			"stateMutability": "payable",
			"type": "function"
		},
		{
			"inputs": [
				{
					"internalType": "uint256",
					"name": "_commentId",
					"type": "uint256"
				}
			],
			"name": "toggleCommentLike",
			"outputs": [],
			"stateMutability": "nonpayable",
			"type": "function"
		},
		{
			"inputs": [
				{
					"internalType": "uint256",
					"name": "_postId",
					"type": "uint256"
				}
			],
			"name": "togglePostLike",
			"outputs": [],
			"stateMutability": "nonpayable",
			"type": "function"
		},
		{
			"inputs": [
				{
					"internalType": "address",
					"name": "_user",
					"type": "address"
				}
			],
			"name": "toggleUserFollow",
			"outputs": [],
			"stateMutability": "nonpayable",
			"type": "function"
		},
		{
			"inputs": [
				{
					"internalType": "address",
					"name": "",
					"type": "address"
				}
			],
			"name": "users",
			"outputs": [
				{
					"internalType": "address",
					"name": "wallet",
					"type": "address"
				},
				{
					"internalType": "string",
					"name": "name",
					"type": "string"
				},
				{
					"internalType": "uint256",
					"name": "followingCount",
					"type": "uint256"
				},
				{
					"internalType": "uint256",
					"name": "followerCount",
					"type": "uint256"
				},
				{
					"internalType": "uint256",
					"name": "postCount",
					"type": "uint256"
				},
				{
					"internalType": "uint256",
					"name": "tipsReceived",
					"type": "uint256"
				},
				{
					"internalType": "uint256",
					"name": "tipsGiven",
					"type": "uint256"
				}
			],
			"stateMutability": "view",
			"type": "function"
		}
	],
	"bytecode": "0x608060405234801561001057600080fd5b506112bd806100206000396000f3fe6080604052600436106100fe5760003560e01c806345ff20de116100955780638ebb4c15116100645780638ebb4c151461031457806396f2507314610345578063a87430ba14610365578063b78949e714610398578063fa3be450146103b857600080fd5b806345ff20de146102585780635921cdd91461026e5780637433d367146102ac5780638899e66e146102cc57600080fd5b806317906c2e116100d157806317906c2e146101d4578063339fe856146101f8578063392338f51461021857806340a179851461023857600080fd5b806309d4d796146101035780630b1e7f831461016057806311341d511461019257806312bf6e9f146101bf575b600080fd5b34801561010f57600080fd5b5061014b61011e366004610dd6565b336000908152602081815260408083206001600160a01b0394909416835260089093019052205460ff1690565b60405190151581526020015b60405180910390f35b34801561016c57600080fd5b5061018061017b366004610e06565b6103f6565b60405161015796959493929190610e65565b34801561019e57600080fd5b506101b26101ad366004610e06565b610546565b6040516101579190610eb7565b6101d26101cd366004610dd6565b6105ab565b005b3480156101e057600080fd5b506101ea60035481565b604051908152602001610157565b34801561020457600080fd5b506101b2610213366004610dd6565b6106c9565b34801561022457600080fd5b506101d2610233366004610f44565b610734565b34801561024457600080fd5b506101d2610253366004610fb0565b610841565b34801561026457600080fd5b506101ea60045481565b34801561027a57600080fd5b5061014b610289366004610e06565b600090815260016020908152604080832033845260060190915290205460ff1690565b3480156102b857600080fd5b506101d26102c7366004610e06565b610977565b3480156102d857600080fd5b5061014b6102e7366004610dd6565b336000908152602081815260408083206001600160a01b03949094168352600b9093019052205460ff1690565b34801561032057600080fd5b5061033461032f366004610e06565b610a70565b604051610157959493929190610ffc565b34801561035157600080fd5b506101d2610360366004610e06565b610b32565b34801561037157600080fd5b50610385610380366004610dd6565b610c0e565b604051610157979695949392919061103a565b3480156103a457600080fd5b506101d26103b3366004610dd6565b610cdb565b3480156103c457600080fd5b5061014b6103d3366004610e06565b600090815260026020908152604080832033845260050190915290205460ff1690565b60016020819052600091825260409091208054918101546002820180546001600160a01b03909216929161042990611088565b80601f016020809104026020016040519081016040528092919081815260200182805461045590611088565b80156104a25780601f10610477576101008083540402835291602001916104a2565b820191906000526020600020905b81548152906001019060200180831161048557829003601f168201915b5050505050908060030180546104b790611088565b80601f01602080910402602001604051908101604052809291908181526020018280546104e390611088565b80156105305780601f1061050557610100808354040283529160200191610530565b820191906000526020600020905b81548152906001019060200180831161051357829003601f168201915b5050505050908060040154908060050154905086565b60008181526001602090815260409182902060070180548351818402810184019094528084526060939283018282801561059f57602002820191906000526020600020905b81548152602001906001019080831161058b575b50505050509050919050565b6000816001600160a01b03163460405160006040518083038185875af1925050503d80600081146105f8576040519150601f19603f3d011682016040523d82523d6000602084013e6105fd565b606091505b50509050806106465760405162461bcd60e51b815260206004820152601060248201526f2a3930b739b332b9103330b4b632b21760811b60448201526064015b60405180910390fd5b336000818152602081815260408083206001600160a01b0387168452818420600a820184528285208054600160ff199182168117909255968652600b820190945291909320805490941690911790925560078101549091906106a99034906110d8565b600783015560068101546106be9034906110d8565b600690910155505050565b6001600160a01b0381166000908152602081815260409182902060020180548351818402810184019094528084526060939283018282801561059f576020028201919060005260206000209081548152602001906001019080831161058b5750505050509050919050565b8383600082828080601f016020809104026020016040519081016040528093929190818152602001838380828437600092019190915250508251929350505061078f5760405162461bcd60e51b815260040161063d906110f1565b6003546000818152600160208190526040909120918255810180546001600160a01b03191633179055600281016107c7888a83611196565b50600381016107d7868883611196565b5042600482015533600081815260208181526040822060035460028201805460018101825590855292842090920191909155918152600590910180549161081d83611257565b90915550506003805490600061083283611257565b91905055505050505050505050565b60008381526001602052604090206004015483906108925760405162461bcd60e51b815260206004820152600e60248201526d141bdcdd081b9bdd08199bdd5b9960921b604482015260640161063d565b8282600082828080601f01602080910402602001604051908101604052809392919081815260200183838082843760009201919091525050825192935050506108ed5760405162461bcd60e51b815260040161063d906110f1565b60045460008181526002602081905260409091209182556001820180546001600160a01b031916331790558101610925878983611196565b50426003820155600088815260016020818152604083206004805460078301805495860181558652928520909301919091558154909290919061096783611257565b9190505550505050505050505050565b60008181526002602052604090206003015481906109cb5760405162461bcd60e51b815260206004820152601160248201527010dbdb5b595b9d081b9bdd08199bdd5b99607a1b604482015260640161063d565b600082815260026020908152604080832033845260050190915290205460ff1615610a33576000828152600260208181526040808420338552600581018352908420805460ff19169055858452919052600401805491610a2a83611270565b91905055505050565b6000828152600260208181526040808420338552600581018352908420805460ff19166001179055858452919052600401805491610a2a83611257565b600260208190526000918252604090912080546001820154928201805491936001600160a01b03169291610aa390611088565b80601f0160208091040260200160405190810160405280929190818152602001828054610acf90611088565b8015610b1c5780601f10610af157610100808354040283529160200191610b1c565b820191906000526020600020905b815481529060010190602001808311610aff57829003601f168201915b5050505050908060030154908060040154905085565b6000818152600160205260409020600401548190610b835760405162461bcd60e51b815260206004820152600e60248201526d141bdcdd081b9bdd08199bdd5b9960921b604482015260640161063d565b6000828152600160209081526040808320338452600681019092529091205460ff1615610bdd573360009081526006820160205260408120805460ff1916905560058201805491610bd383611270565b9190505550505050565b3360009081526006820160205260408120805460ff1916600117905560058201805491610bd383611257565b505050565b600060208190529081526040902080546001820180546001600160a01b039092169291610c3a90611088565b80601f0160208091040260200160405190810160405280929190818152602001828054610c6690611088565b8015610cb35780601f10610c8857610100808354040283529160200191610cb3565b820191906000526020600020905b815481529060010190602001808311610c9657829003601f168201915b5050505050908060030154908060040154908060050154908060060154908060070154905087565b336000908152602081815260408083206001600160a01b03851684528184206008820190935292205460ff1615610d6e576001600160a01b03831660009081526008830160209081526040808320805460ff199081169091553384526009850190925282208054909116905560038301805491610d5783611270565b9091555050600481018054906000610bd383611270565b6001600160a01b038316600090815260088301602090815260408083208054600160ff19918216811790925533855260098601909352908320805490921617905560038301805491610dbf83611257565b9091555050600481018054906000610bd383611257565b600060208284031215610de857600080fd5b81356001600160a01b0381168114610dff57600080fd5b9392505050565b600060208284031215610e1857600080fd5b5035919050565b6000815180845260005b81811015610e4557602081850181015186830182015201610e29565b506000602082860101526020601f19601f83011685010191505092915050565b8681526001600160a01b038616602082015260c060408201819052600090610e8f90830187610e1f565b8281036060840152610ea18187610e1f565b6080840195909552505060a00152949350505050565b6020808252825182820181905260009190848201906040850190845b81811015610eef57835183529284019291840191600101610ed3565b50909695505050505050565b60008083601f840112610f0d57600080fd5b50813567ffffffffffffffff811115610f2557600080fd5b602083019150836020828501011115610f3d57600080fd5b9250929050565b60008060008060408587031215610f5a57600080fd5b843567ffffffffffffffff80821115610f7257600080fd5b610f7e88838901610efb565b90965094506020870135915080821115610f9757600080fd5b50610fa487828801610efb565b95989497509550505050565b600080600060408486031215610fc557600080fd5b83359250602084013567ffffffffffffffff811115610fe357600080fd5b610fef86828701610efb565b9497909650939450505050565b8581526001600160a01b038516602082015260a06040820181905260009061102690830186610e1f565b606083019490945250608001529392505050565b6001600160a01b038816815260e06020820181905260009061105e90830189610e1f565b6040830197909752506060810194909452608084019290925260a083015260c09091015292915050565b600181811c9082168061109c57607f821691505b6020821081036110bc57634e487b7160e01b600052602260045260246000fd5b50919050565b634e487b7160e01b600052601160045260246000fd5b808201808211156110eb576110eb6110c2565b92915050565b60208082526021908201527f436f6e74656e742063616e6e6f7420626520616e20656d70747920737472696e6040820152606760f81b606082015260800190565b634e487b7160e01b600052604160045260246000fd5b601f821115610c0957600081815260208120601f850160051c8101602086101561116f5750805b601f850160051c820191505b8181101561118e5782815560010161117b565b505050505050565b67ffffffffffffffff8311156111ae576111ae611132565b6111c2836111bc8354611088565b83611148565b6000601f8411600181146111f657600085156111de5750838201355b600019600387901b1c1916600186901b178355611250565b600083815260209020601f19861690835b828110156112275786850135825560209485019460019092019101611207565b50868210156112445760001960f88860031b161c19848701351681555b505060018560011b0183555b5050505050565b600060018201611269576112696110c2565b5060010190565b60008161127f5761127f6110c2565b50600019019056fea2646970667358221220545d366b81f4f9d578993008d3671a194c2d31db989e3682ba230cc167a96c7464736f6c63430008130033",
	"linkReferences": {},
	"deployedLinkReferences": {}
}