{
	"_format": "hh-sol-artifact-1",
	"contractName": "SocialMedia",
	"sourceName": "contracts/SocialMedia.sol",
	"abi": [
		{
			"inputs": [],
			"name": "commentCount",
			"outputs": [
				{
					"internalType": "uint256",
					"name": "",
					"type": "uint256"
				}
			],
			"stateMutability": "view",
			"type": "function"
		},
		{
			"inputs": [
				{
					"internalType": "uint256",
					"name": "",
					"type": "uint256"
				}
			],
			"name": "comments",
			"outputs": [
				{
					"internalType": "uint256",
					"name": "commentId",
					"type": "uint256"
				},
				{
					"internalType": "address",
					"name": "author",
					"type": "address"
				},
				{
					"internalType": "string",
					"name": "content",
					"type": "string"
				},
				{
					"internalType": "uint256",
					"name": "createdAt",
					"type": "uint256"
				},
				{
					"internalType": "uint256",
					"name": "likeCount",
					"type": "uint256"
				}
			],
			"stateMutability": "view",
			"type": "function"
		},
		{
			"inputs": [
				{
					"internalType": "uint256",
					"name": "_postId",
					"type": "uint256"
				},
				{
					"internalType": "string",
					"name": "_content",
					"type": "string"
				}
			],
			"name": "createComment",
			"outputs": [],
			"stateMutability": "nonpayable",
			"type": "function"
		},
		{
			"inputs": [
				{
					"internalType": "string",
					"name": "_content",
					"type": "string"
				},
				{
					"internalType": "string",
					"name": "_imageCid",
					"type": "string"
				}
			],
			"name": "createPost",
			"outputs": [],
			"stateMutability": "nonpayable",
			"type": "function"
		},
		{
			"inputs": [
				{
					"internalType": "uint256",
					"name": "_commentId",
					"type": "uint256"
				}
			],
			"name": "hasLikedComment",
			"outputs": [
				{
					"internalType": "bool",
					"name": "",
					"type": "bool"
				}
			],
			"stateMutability": "view",
			"type": "function"
		},
		{
			"inputs": [
				{
					"internalType": "uint256",
					"name": "_postId",
					"type": "uint256"
				}
			],
			"name": "hasLikedPost",
			"outputs": [
				{
					"internalType": "bool",
					"name": "",
					"type": "bool"
				}
			],
			"stateMutability": "view",
			"type": "function"
		},
		{
			"inputs": [
				{
					"internalType": "address",
					"name": "_user",
					"type": "address"
				}
			],
			"name": "isFollowing",
			"outputs": [
				{
					"internalType": "bool",
					"name": "",
					"type": "bool"
				}
			],
			"stateMutability": "view",
			"type": "function"
		},
		{
			"inputs": [
				{
					"internalType": "uint256",
					"name": "_postId",
					"type": "uint256"
				}
			],
			"name": "postComments",
			"outputs": [
				{
					"internalType": "uint256[]",
					"name": "",
					"type": "uint256[]"
				}
			],
			"stateMutability": "view",
			"type": "function"
		},
		{
			"inputs": [],
			"name": "postCount",
			"outputs": [
				{
					"internalType": "uint256",
					"name": "",
					"type": "uint256"
				}
			],
			"stateMutability": "view",
			"type": "function"
		},
		{
			"inputs": [
				{
					"internalType": "uint256",
					"name": "",
					"type": "uint256"
				}
			],
			"name": "posts",
			"outputs": [
				{
					"internalType": "uint256",
					"name": "postId",
					"type": "uint256"
				},
				{
					"internalType": "address",
					"name": "author",
					"type": "address"
				},
				{
					"internalType": "string",
					"name": "content",
					"type": "string"
				},
				{
					"internalType": "string",
					"name": "imageCid",
					"type": "string"
				},
				{
					"internalType": "uint256",
					"name": "createdAt",
					"type": "uint256"
				},
				{
					"internalType": "uint256",
					"name": "likeCount",
					"type": "uint256"
				}
			],
			"stateMutability": "view",
			"type": "function"
		},
		{
			"inputs": [
				{
					"internalType": "address",
					"name": "_user",
					"type": "address"
				}
			],
			"name": "postsByUser",
			"outputs": [
				{
					"internalType": "uint256[]",
					"name": "",
					"type": "uint256[]"
				}
			],
			"stateMutability": "view",
			"type": "function"
		},
		{
			"inputs": [
				{
					"internalType": "uint256",
					"name": "_commentId",
					"type": "uint256"
				}
			],
			"name": "toggleCommentLike",
			"outputs": [],
			"stateMutability": "nonpayable",
			"type": "function"
		},
		{
			"inputs": [
				{
					"internalType": "uint256",
					"name": "_postId",
					"type": "uint256"
				}
			],
			"name": "togglePostLike",
			"outputs": [],
			"stateMutability": "nonpayable",
			"type": "function"
		},
		{
			"inputs": [
				{
					"internalType": "address",
					"name": "_user",
					"type": "address"
				}
			],
			"name": "toggleUserFollow",
			"outputs": [],
			"stateMutability": "nonpayable",
			"type": "function"
		},
		{
			"inputs": [
				{
					"internalType": "address",
					"name": "",
					"type": "address"
				}
			],
			"name": "users",
			"outputs": [
				{
					"internalType": "address",
					"name": "wallet",
					"type": "address"
				},
				{
					"internalType": "string",
					"name": "name",
					"type": "string"
				},
				{
					"internalType": "uint256",
					"name": "followingCount",
					"type": "uint256"
				},
				{
					"internalType": "uint256",
					"name": "followerCount",
					"type": "uint256"
				},
				{
					"internalType": "uint256",
					"name": "postCount",
					"type": "uint256"
				}
			],
			"stateMutability": "view",
			"type": "function"
		}
	],
	"bytecode": "0x608060405234801561001057600080fd5b5061104d806100206000396000f3fe608060405234801561001057600080fd5b50600436106100f55760003560e01c806345ff20de1161009757806396f250731161006657806396f2507314610252578063a87430ba14610265578063b78949e714610289578063fa3be4501461029c57600080fd5b806345ff20de146101e15780635921cdd9146101ea5780637433d3671461021b5780638ebb4c151461022e57600080fd5b806317906c2e116100d357806317906c2e1461018f578063339fe856146101a6578063392338f5146101b957806340a17985146101ce57600080fd5b806309d4d796146100fa5780630b1e7f831461014a57806311341d511461016f575b600080fd5b610135610108366004610b8c565b336000908152602081815260408083206001600160a01b0394909416835260069093019052205460ff1690565b60405190151581526020015b60405180910390f35b61015d610158366004610bbc565b6102cd565b60405161014196959493929190610c1b565b61018261017d366004610bbc565b61041d565b6040516101419190610c6d565b61019860035481565b604051908152602001610141565b6101826101b4366004610b8c565b610482565b6101cc6101c7366004610cfa565b6104ed565b005b6101cc6101dc366004610d66565b610603565b61019860045481565b6101356101f8366004610bbc565b600090815260016020908152604080832033845260060190915290205460ff1690565b6101cc610229366004610bbc565b610739565b61024161023c366004610bbc565b610832565b604051610141959493929190610db2565b6101cc610260366004610bbc565b6108f4565b610278610273366004610b8c565b6109d0565b604051610141959493929190610df0565b6101cc610297366004610b8c565b610a91565b6101356102aa366004610bbc565b600090815260026020908152604080832033845260050190915290205460ff1690565b60016020819052600091825260409091208054918101546002820180546001600160a01b03909216929161030090610e31565b80601f016020809104026020016040519081016040528092919081815260200182805461032c90610e31565b80156103795780601f1061034e57610100808354040283529160200191610379565b820191906000526020600020905b81548152906001019060200180831161035c57829003601f168201915b50505050509080600301805461038e90610e31565b80601f01602080910402602001604051908101604052809291908181526020018280546103ba90610e31565b80156104075780601f106103dc57610100808354040283529160200191610407565b820191906000526020600020905b8154815290600101906020018083116103ea57829003601f168201915b5050505050908060040154908060050154905086565b60008181526001602090815260409182902060070180548351818402810184019094528084526060939283018282801561047657602002820191906000526020600020905b815481526020019060010190808311610462575b50505050509050919050565b6001600160a01b0381166000908152602081815260409182902060020180548351818402810184019094528084526060939283018282801561047657602002820191906000526020600020908154815260200190600101908083116104625750505050509050919050565b8383600082828080601f01602080910402602001604051908101604052809392919081815260200183838082843760009201919091525050825192935050506105515760405162461bcd60e51b815260040161054890610e6b565b60405180910390fd5b6003546000818152600160208190526040909120918255810180546001600160a01b0319163317905560028101610589888a83610f10565b5060038101610599868883610f10565b504260048201553360008181526020818152604082206003546002820180546001810182559085529284209092019190915591815260059091018054916105df83610fe7565b9091555050600380549060006105f483610fe7565b91905055505050505050505050565b60008381526001602052604090206004015483906106545760405162461bcd60e51b815260206004820152600e60248201526d141bdcdd081b9bdd08199bdd5b9960921b6044820152606401610548565b8282600082828080601f01602080910402602001604051908101604052809392919081815260200183838082843760009201919091525050825192935050506106af5760405162461bcd60e51b815260040161054890610e6b565b60045460008181526002602081905260409091209182556001820180546001600160a01b0319163317905581016106e7878983610f10565b50426003820155600088815260016020818152604083206004805460078301805495860181558652928520909301919091558154909290919061072983610fe7565b9190505550505050505050505050565b600081815260026020526040902060030154819061078d5760405162461bcd60e51b815260206004820152601160248201527010dbdb5b595b9d081b9bdd08199bdd5b99607a1b6044820152606401610548565b600082815260026020908152604080832033845260050190915290205460ff16156107f5576000828152600260208181526040808420338552600581018352908420805460ff191690558584529190526004018054916107ec83611000565b91905055505050565b6000828152600260208181526040808420338552600581018352908420805460ff191660011790558584529190526004018054916107ec83610fe7565b600260208190526000918252604090912080546001820154928201805491936001600160a01b0316929161086590610e31565b80601f016020809104026020016040519081016040528092919081815260200182805461089190610e31565b80156108de5780601f106108b3576101008083540402835291602001916108de565b820191906000526020600020905b8154815290600101906020018083116108c157829003601f168201915b5050505050908060030154908060040154905085565b60008181526001602052604090206004015481906109455760405162461bcd60e51b815260206004820152600e60248201526d141bdcdd081b9bdd08199bdd5b9960921b6044820152606401610548565b6000828152600160209081526040808320338452600681019092529091205460ff161561099f573360009081526006820160205260408120805460ff191690556005820180549161099583611000565b9190505550505050565b3360009081526006820160205260408120805460ff191660011790556005820180549161099583610fe7565b505050565b600060208190529081526040902080546001820180546001600160a01b0390921692916109fc90610e31565b80601f0160208091040260200160405190810160405280929190818152602001828054610a2890610e31565b8015610a755780601f10610a4a57610100808354040283529160200191610a75565b820191906000526020600020905b815481529060010190602001808311610a5857829003601f168201915b5050505050908060030154908060040154908060050154905085565b336000908152602081815260408083206001600160a01b03851684528184206006820190935292205460ff1615610b24576001600160a01b03831660009081526006830160209081526040808320805460ff199081169091553384526007850190925282208054909116905560038301805491610b0d83611000565b909155505060048101805490600061099583611000565b6001600160a01b038316600090815260068301602090815260408083208054600160ff19918216811790925533855260078601909352908320805490921617905560038301805491610b7583610fe7565b909155505060048101805490600061099583610fe7565b600060208284031215610b9e57600080fd5b81356001600160a01b0381168114610bb557600080fd5b9392505050565b600060208284031215610bce57600080fd5b5035919050565b6000815180845260005b81811015610bfb57602081850181015186830182015201610bdf565b506000602082860101526020601f19601f83011685010191505092915050565b8681526001600160a01b038616602082015260c060408201819052600090610c4590830187610bd5565b8281036060840152610c578187610bd5565b6080840195909552505060a00152949350505050565b6020808252825182820181905260009190848201906040850190845b81811015610ca557835183529284019291840191600101610c89565b50909695505050505050565b60008083601f840112610cc357600080fd5b50813567ffffffffffffffff811115610cdb57600080fd5b602083019150836020828501011115610cf357600080fd5b9250929050565b60008060008060408587031215610d1057600080fd5b843567ffffffffffffffff80821115610d2857600080fd5b610d3488838901610cb1565b90965094506020870135915080821115610d4d57600080fd5b50610d5a87828801610cb1565b95989497509550505050565b600080600060408486031215610d7b57600080fd5b83359250602084013567ffffffffffffffff811115610d9957600080fd5b610da586828701610cb1565b9497909650939450505050565b8581526001600160a01b038516602082015260a060408201819052600090610ddc90830186610bd5565b606083019490945250608001529392505050565b6001600160a01b038616815260a060208201819052600090610e1490830187610bd5565b604083019590955250606081019290925260809091015292915050565b600181811c90821680610e4557607f821691505b602082108103610e6557634e487b7160e01b600052602260045260246000fd5b50919050565b60208082526021908201527f436f6e74656e742063616e6e6f7420626520616e20656d70747920737472696e6040820152606760f81b606082015260800190565b634e487b7160e01b600052604160045260246000fd5b601f8211156109cb57600081815260208120601f850160051c81016020861015610ee95750805b601f850160051c820191505b81811015610f0857828155600101610ef5565b505050505050565b67ffffffffffffffff831115610f2857610f28610eac565b610f3c83610f368354610e31565b83610ec2565b6000601f841160018114610f705760008515610f585750838201355b600019600387901b1c1916600186901b178355610fca565b600083815260209020601f19861690835b82811015610fa15786850135825560209485019460019092019101610f81565b5086821015610fbe5760001960f88860031b161c19848701351681555b505060018560011b0183555b5050505050565b634e487b7160e01b600052601160045260246000fd5b600060018201610ff957610ff9610fd1565b5060010190565b60008161100f5761100f610fd1565b50600019019056fea264697066735822122047eda4c1bcfddcb7c8ddf34dc3bc59fac455ef6d40bb2066948f54dba3d8691364736f6c63430008130033",
	"linkReferences": {},
	"deployedLinkReferences": {}
}